S3150800000010590020290300080D340008832F000822
S31508000010E13200087F0600081545000800000000C8
S31508000020000000000000000000000000690200084F
S31508000030FF08000800000000C5020008913B000800
S31508000040430300084303000843030008430300086A
S31508000050430300084303000843030008430300085A
S315080000604303000843030008430300085507000834
S315080000706507000875070008850700089507000842
S31508000080A5070008B50700084303000895060008F9
S3150800009085060008430300084303000843030008D5
S315080000A043030008753C000843030008430300089F
S315080000B043030008430300084303000843030008FA
S315080000C043030008430300084303000843030008EA
S315080000D04303000843030008D9440008E94400081C
S315080000E043030008430300084303000843030008CA
S315080000F0430300084303000843030008C507000834
S3150800010043030008430300084303000843030008A9
S31508000110053E00087D3E0008430300084303000827
S3150800012043030008D50700084303000843030008F3
S31508000130430300084303000843030008B506000804
S3150800014043030008A5060008430300084303000804
S3150800015043030008E507000843030008F9440008BC
S315080001604303000843030008430300084303000849
S315080001704303000843030008430300080000000087
S31508000180430300084303000800F002F800F05CF897
S315080001900AA090E8000C82448344AAF10107DA45D4
S315080001A001D100F051F8AFF2090EBAE80F0013F0CA
S315080001B0010F18BFFB1A43F00103184774740000B7
S315080001C0947400000A444FF0000C10F8013B13F039
S315080001D0070408BF10F8014B1D1108BF10F8015B92
S315080001E0641E05D010F8016B641E01F8016BF9D185
S315080001F013F0080F1EBF10F8014BAD1C0C1B09D1DC
S315080002006D1E58BF01F801CBFAD505E014F8016B4D
S3150800021001F8016B6D1EF9D59142D6D370470000DF
S315080002200023002400250026103A28BF78C1FBD8F1
S31508000230520728BF30C148BF0B6070471FB507F08B
S31508000240C4F91FBD10B510BD00F0E4F91146FFF75B
S31508000250F5FF04F087FA00F002FA03B4FFF7F2FF9D
S3150800026003BC00F005FA00002C4B19680868B0E8D2
S31508000270F04F80F30988BFF36F8F4FF0000080F3CB
S31508000280118870470000000008480068006880F37D
S3150800029008884FF0000080F3148862B661B6BFF391
S315080002A04F8FBFF36F8F00DF00BF00BF08ED00E080
S315080002B0DFF80C00016841F470010160704700BF67
S315080002C088ED00E0EFF30980BFF36F8F134B1A68D0
S315080002D01EF0100F08BF20ED108A20E9F04F1060BD
S315080002E009B44FF0500080F31188BFF34F8FBFF366
S315080002F06F8F05F099FC4FF0000080F3118809BC58
S3150800030019680868B0E8F04F1EF0100F08BFB0EC87
S31508000310108A80F30988BFF36F8F70475C0000204E
S31508000320EFF30580704700000948804709480047F1
S31508000330FEE7FEE7FEE7FEE7FEE7FEE7FEE7FEE787
S31508000340FEE7FEE704480549054A064B70470000E4
S31508000350613C00088901000810530020105900204C
S31508000360105500201055002053EA020C00F0698051
S315080003702DE9F04B4FF00006002B1FBFB3FA83F5AB
S3150800038003FA05F424FA05F65E4012BF1643B2FADC
S3150800039082F502FA05F4C5F120051EBF22FA05FC0E
S315080003A044EA0C04203556EA044C4FEA144418BFB4
S315080003B0641C4FF000084FF00009904271EB030CE3
S315080003C039D3002919BFB1FA81F701FA07F6B0FA4D
S315080003D080F700FA07F6C7F120071EBF20FA07FCC8
S315080003E046EA0C062037B6FBF4FCA7EB0507103FD8
S315080003F007F01F0BCBF120060CFA0BFB2CFA06F6BE
S3150800040044BFB3460026202FA4BF5E464FF0000B1C
S315080004105BEA060C08BF4FF0010B19EB0B09ABFBA7
S31508000420027C48EB0608C01B06FB02CC0BFB03CC80
S3150800043071EB0C01C1E70B46024641464846BDE84A
S31508000440F08B13B54FF000004FF00001AFF30080BA
S31508000450BDE81C407047032A40F2308010F0030CB8
S3150800046000F0158011F8013BBCF1020F624498BFF9
S3150800047011F801CB00F8013B38BF11F8013BA2F196
S31508000480040298BF00F801CB38BF00F8013B11F011
S31508000490030300F02580083AC0F0088051F8043BB1
S315080004A0083A51F804CBA0E80810F5E7121D5CBF1E
S315080004B051F8043B40F8043BAFF30080D20724BF51
S315080004C011F8013B11F801CB48BF11F8012B24BFE5
S315080004D000F8013B00F801CB48BF00F8012B704734
S315080004E010B5203AC0F00B80B1E81850203AA0E8C1
S315080004F01850B1E81850A0E81850BFF4F5AF5FEAF5
S31508000500027C24BFB1E81850A0E8185044BF18C9A7
S3150800051018C0BDE810405FEA827C24BF51F8043B4E
S3150800052040F8043B08BF7047D20728BF31F8023BA2
S3150800053048BF11F8012B28BF20F8023B48BF00F836
S31508000540012B704702F0FF0343EA032242EA024204
S3150800055000F037B84FF0000200B5134694469646A9
S31508000560203922BFA0E80C50A0E80C50B1F12001B8
S31508000570BFF4F7AF090728BFA0E80C5048BF0CC066
S315080005805DF804EB890028BF40F8042B08BF7047C4
S3150800059048BF20F8022B11F0804F18BF00F8012B36
S315080005A0704770477047704710B500F02BF8006821
S315080005B010BD10B5044600F025F8046010BD4FF0D4
S315080005C000020429C0F0128010F0030C3FF4C4AFF7
S315080005D0CCF1040CBCF1020F18BF00F8012BA8BF20
S315080005E020F8022BA1EB0C01FFF7B6BF5FEAC17C2E
S315080005F024BF00F8012B00F8012B48BF00F8012B97
S315080006007047000000487047AC5200200048704709
S31508000610AC5200207546FFF7F9FFAE46050069465D
S31508000620534620F00700854618B020B5FFF78AFE26
S31508000630BDE820404FF000064FF000074FF00008D5
S315080006404FF0000B21F00701AC46ACE8C009ACE856
S31508000650C009ACE8C009ACE8C0098D46704710B5BA
S315080006600446AFF300802046BDE81040FFF7F5BD0D
S3150800067001491820ABBEFEE726000200704700BFFE
S31508000680FEE7000010B5024800F053FB10BD00005D
S31508000690FC02002010B5024800F04BFB10BD00001C
S315080006A0FC02002010B5024800F043FB10BD000014
S315080006B02403002010B5024800F03BFB10BD0000E3
S315080006C02403002030B587B004460D461C21684631
S315080006D0FFF740FF094A2068904201D0012000E058
S315080006E0002001462B466A46204600F058FA029832
S315080006F010B9009807B030BD0198FBE700640040C8
S3150800070010B58AB004460020069001200790002004
S3150800071000900190029003900E2009900B492068E2
S31508000720884202D100200590049009492068884231
S3150800073003D10E20059001200490012008906946F7
S31508000740204600F09BF90AB010BD00000064004086
S315080007500068004010B5024800F04CFE10BD0000CD
S31508000760E805002010B5024800F044FE10BD000060
S315080007706807002010B5024800F03CFE10BD0000D6
S315080007802805002010B5024800F034FE10BD000010
S31508000790C807002010B5024800F02CFE10BD000066
S315080007A08805002010B5024800F024FE10BD0000A0
S315080007B0A806002010B5024800F01CFE10BD000077
S315080007C00807002010B5024800F014FE10BD00000E
S315080007D04806002010B5024800F00CFE10BD0000C7
S315080007E02808002010B5024800F004FE10BD0000DD
S315080007F0880800200146087810381823B0FBF3F261
S315080008000848805CC865032A05D908686FF309009B
S31508000810001D886503E008686FF309008865886D20
S31508000820704700001C760008014600208A6A8B691A
S31508000830CBB932B1012A0DD0022A03D0032A10D12E
S315080008400EE000BFCB6A03F08073B3F1807F00D15E
S31508000850012007E0CB6AB3F1C07F00D1012001E097
S3150800086000E000BF34E08B69B3F5005F1AD132B1FE
S31508000870012A07D0022A03D0032A11D10AE000BFB1
S3150800088001200EE0CB6A03F08073B3F1807F00D1BC
S31508000890012006E0CB6AB3F1C07F00D1012000E059
S315080008A000BF15E032B1012A05D0022A04D0032A76
S315080008B00CD103E000BF00BF012008E0CB6A03F0BB
S315080008C08073B3F1807F00D1012000E000BF00BF34
S315080008D0704730B50468246824F4802405682C60C1
S315080008E0046863608468402C04D10468A2600468C4
S315080008F0E16003E00468A1600468E26030BD704707
S3150800090072B600BFFEE710B5024692F82030012BFA
S3150800091001D0022B06D1106840690843146860614B
S31508000920002010BD506A40F4802050620120F8E78C
S31508000930F0B504460D461E4694F820702068836874
S31508000940A86800B900E000BF012F01D0022F7DD1B1
S3150800095003F0806030B903F0006018B903F08050E6
S3150800096000287ED0C3F30161012088403060A86862
S3150800097060B9B5F800C0E86840EA4C5C206800F544
S31508000980C07000EB0110C0F800C00FE0D5E901C047
S3150800099040EACC00D5F80CC040EA0C00D4F800C0F8
S315080009A00CF5C07C0CEB011CCCF80000D5F810C087
S315080009B0206800F5C07000EB0110C0F804C0287D5F
S315080009C001280ED1206800F5C07000EB01104068C0
S315080009D040F4807C206800F5C07000EB0110C0F878
S315080009E004C0D079000692F806C040EA0C4092F896
S315080009F005C040EA0C2092F804C040EA0C00D4F87E
S31508000A0000C00CF5C07C0CEB011CCCF80C00D078AF
S31508000A10000692F802C040EA0C4092F801C040EA8B
S31508000A200C2092F800C040EA0C00D4F800C00CF57F
S31508000A30C07C0CEB011CCCF80800206800F5C070DF
S31508000A4000EB0110006840F0010C01E00FE008E03F
S31508000A50206800F5C07000EB0110C0F800C0002047
S31508000A60F0BD606A40F4001060620120F8E7606A31
S31508000A7040F4802060620120F2E70000F0B50446E9
S31508000A800A4694F82050012D01D0022D7ED1424904
S31508000A9001F50071086840F001000860086820F454
S31508000AA07C5008600868566A40EA06200860107D8F
S31508000AB000F01F06012000FA06F3C8699843C861CA
S31508000AC0A1F50071D069C8B9D1F80C029843C1F8EC
S31508000AD00C02908880B2968940EA064601F51070A5
S31508000AE0576940F83760108880B2168940EA06468A
S31508000AF001F51070576900EBC7004660D0690128F8
S31508000B0019D1D1F80C021843C1F80C02908880B2AA
S31508000B10168840EA064601F51070576940F83760AE
S31508000B20908980B2168940EA064601F51070576921
S31508000B3000EBC7004660906928B9D1F804029843CB
S31508000B40C1F8040204E0D1F804021843C1F804020B
S31508000B50106928B9D1F814029843C1F8140204E0C0
S31508000B60D1F814021843C1F81402106A012804D1F6
S31508000B70D1F81C021843C1F81C02D1F8000220F073
S31508000B800100C1F800020020F0BDFFE7606A40F4EA
S31508000B90802060620120F7E700640040704770B566
S31508000BA0044694F82050012D01D0022D7DD151B96B
S31508000BB02068C06800F0030080B9606A40F400103D
S31508000BC06062012070BD2068006900F0030028B942
S31508000BD0606A40F4001060620120F3E7206800F5BF
S31508000BE0D87000EB0110006800F00400906090686F
S31508000BF040B9206800F5D87000EB01100068400D78
S31508000C00106007E0206800F5D87000EB0110006856
S31508000C10C0085060206800F5D87000EB0110006825
S31508000C2000F00200D060206800F5D87000EB0110D3
S31508000C30406800F00F00082802D30820106108E079
S31508000C40206800F5D87000EB0110406800F00F002E
S31508000C501061206800F5D87000EB0110406800F4B8
S31508000C607F40000A9061206800F5D87000EB0110FB
S31508000C704068000C5061206800F5D87000EB011040
S31508000C8080681870206800F5D87000EB011080683D
S31508000C9000F47F40000A5870206800F5D87000EB11
S31508000CA00110806800F47F0000E03CE0000C9870BA
S31508000CB0206800F5D87000EB01108068000ED87027
S31508000CC0206800F5D87000EB0110C068187120681C
S31508000CD000F5D87000EB0110C06800F47F40000AE8
S31508000CE05871206800F5D87000EB0110C06800F450
S31508000CF07F00000C9871206800F5D87000EB011091
S31508000D00C068000ED87131B92068C06840F020006C
S31508000D102668F06005E02068006940F02000266833
S31508000D20306100204EE7606A40F48020606201204E
S31508000D3048E72DE9F05F04460025206846692068E3
S31508000D40D0F80490206887682068D0F80CA020683E
S31508000D50D0F810B02068D0F8188006F001000028F6
S31508000D6055D007F00100C0B101202168886007F05E
S31508000D70020018B1204600F0CCFA0EE007F0040095
S31508000D8010B145F4006508E007F0080010B145F415
S31508000D90805502E0204600F0BBFA07F48070C8B11F
S31508000DA04FF480702168886007F4007018B12046F7
S31508000DB000F0B1FA0EE007F4806010B145F4005572
S31508000DC008E007F4006010B145F4804502E02046CB
S31508000DD000F0A0FA07F48030C8B14FF480302168DB
S31508000DE0886007F4003018B1204600F096FA0EE045
S31508000DF007F4802010B145F4004508E007F4002008
S31508000E0010B145F4803502E0204600F085FA06F078
S31508000E10080038B10AF0100020B145F4007510201A
S31508000E202168C86006F0040040B10AF0080028B13D
S31508000E3008202168C860204600F01CFA06F0020067
S31508000E4038B12068C06800F0030010B1204600F0F1
S31508000E5012FA06F0400038B10BF0100020B145F444
S31508000E60806510202168086106F0200040B10BF06B
S31508000E70080028B1082021680861204600F0FCF91E
S31508000E8006F0100038B12068006900F0030010B1C0
S31508000E90204600F0F3F906F4003040B109F01000DE
S31508000EA028B1102021684860204600F001FA06F4AF
S31508000EB0803040B109F0080028B108202168486050
S31508000EC0204600F02BFA06F4004088B309F0040027
S31508000ED078B306F4807020B108F0010008B145F037
S31508000EE0010506F4007020B108F0020008B145F0CB
S31508000EF0020506F4806020B108F0040008B145F048
S31508000F00040506F40060A0B108F0700088B108F086
S31508000F107000402817D006DC10280BD020280CD0EB
S31508000F20302819D10CE0502810D0602814D110E0D0
S31508000F301DE019E045F008050FE045F010050CE046
S31508000F4045F0200509E045F0400506E045F0800536
S31508000F5003E045F4807500E000BF00BF20688069A3
S31508000F6020F07000216888610420216848602DB14E
S31508000F70606A284360622046FFF710FEBDE8F09FCE
S31508000F8070B504460CB9012070BD94F8200010B95C
S31508000F90204600F0AFF82068006840F0010021689C
S31508000FA0086000F001FD05460DE000F0FDFC401B61
S31508000FB00A2808D9606A40F400306062052084F87F
S31508000FC020000120E0E72068406800F001000028C2
S31508000FD0EBD02068006820F002002168086000F065
S31508000FE0E3FC05460DE000F0DFFC401B0A2808D9A3
S31508000FF0606A40F400306062052084F82000012011
S31508001000C2E72068406800F002000028EBD1207E85
S31508001010012806D12068006840F080002168086031
S3150800102005E02068006820F0800021680860607E7E
S31508001030012806D12068006840F040002168086051
S3150800104005E02068006820F0400021680860A07E5E
S31508001050012806D12068006840F020002168086051
S3150800106005E02068006820F0200021680860E07E1E
S31508001070012806D12068006820F010002168086061
S3150800108005E02068006840F0100021680860207FAD
S31508001090012806D12068006840F008002168086029
S315080010A005E02068006820F0080021680860607F75
S315080010B0012806D12068006840F00400216808600D
S315080010C005E02068006820F0040021680860D4E97B
S315080010D00201084321690843616908436168491E9A
S315080010E008432168C86100206062012084F8200056
S315080010F0002049E710B586B00446142101A8FFF779
S3150800110029FA5749206888424AD156480068401C3F
S31508001110544908600846006801280FD100BF00201E
S3150800112000905148006840F000704F490860084632
S31508001130006800F00070009000BF00BF00BF0020EC
S31508001140009049481038006840F0020046491039B6
S3150800115008600846006800F00200009000BF00BF63
S315080011604FF4407001900220029000200390032063
S3150800117004900920059001A93C4800F01BFB0022B9
S315080011800521132000F0CEFC132000F0B7FC002246
S315080011900521142000F0C6FC142000F0AFFC5CE02A
S315080011A033492068884258D100BF002000902E4855
S315080011B0006840F080602C4908600846006800F026
S315080011C08060009000BF00BF26480068401C254983
S315080011D008600846006801280FD100BF002000906B
S315080011E02148006840F000701F49086008460068FA
S315080011F000F00070009000BF00BF00BF0020009004
S3150800120019481038006840F002001749103908607C
S315080012100846006800F00200009000BF00BF60208A
S3150800122001900220029000200390032004900920D8
S31508001230059001A90D4800F0BDFA002205213F20BE
S3150800124000F070FC3F2000F059FC002205214120E7
S3150800125000F068FC412000F051FC06B010BD00000B
S3150800126000640040000000204038024000040240AC
S315080012700068004070477047704700007CB5054617
S3150800128069460848FFF71EFA04466B462246054992
S31508001290054802F013FB6B4622460249034802F052
S315080012A00DFB7CBD24030020C051002038520020CD
S315080012B0704770B5044694F82000012822D1022010
S315080012C084F820002068006820F001002168086082
S315080012D000F06AFB05460DE000F066FB401B0A2895
S315080012E008D9606A40F400306062052084F820005E
S315080012F0012070BD2068406800F001000028EBD18D
S315080013006062F6E7606A40F4002060620120F0E758
S31508001310704770477047704770477047704770B599
S315080013200446A56D00F040FB064694F835000228F1
S3150800133008D08020606500BF002084F8340000BF14
S31508001340012070BD2068006820F01600216808603A
S315080013502068406920F0800021684861206C08B93F
S31508001360A06C28B12068006820F008002168086091
S315080013702068006820F001002168086010E000F08D
S3150800138013FB801B05280BD920206065032084F8F1
S31508001390350000BF002084F8340000BF0320D0E7E2
S315080013A02068006800F001000028E8D194F85C1075
S315080013B03F208840A860012084F8350000BF00203F
S315080013C084F8340000BF00BFBBE7014691F835003A
S315080013D0022803D08020486501207047052081F83F
S315080013E035000868006820F001000A6810600020CF
S315080013F0F3E70000F8B50446002000908C48006822
S315080014004FF41651B0FBF1F7A56D2E6894F85C10F1
S3150800141008208840304098B12068006800F0040031
S3150800142070B12068006820F004002168086094F80C
S315080014305C1008208840A860606D40F00100606577
S3150800144094F85C1001208840304068B120684069F3
S3150800145000F0800040B194F85C1001208840A86034
S31508001460606D40F00200606594F85C1004208840C6
S31508001470304068B12068006800F0020040B194F876
S315080014805C1004208840A860606D40F00400606528
S3150800149094F85C1010208840304078B320680068C3
S315080014A000F0080050B394F85C1010208840A8603B
S315080014B02068006800F4802080B12068006800F485
S315080014C0002028B9206CC8B12046216C884715E051
S315080014D0A06C98B12046A16C88470FE02068006888
S315080014E000F4807028B92068006820F00800216898
S315080014F00860206C10B12046216C884794F85C106F
S31508001500202088403040002865D02068006800F018
S31508001510100000285FD094F85C1020208840A8604E
S3150800152094F83500052828D12068006820F01600B0
S31508001530216808602068406920F0800021684861B9
S31508001540206C08B9A06C28B12068006820F0080053
S315080015502168086094F85C103F208840A860012044
S3150800156084F8350000BF002084F8340000BF206DE1
S3150800157010B12046216D8847F8BD2068006800F440
S31508001580802080B12068006800F4002028B9606CCB
S3150800159010B12046616C88471DE0E06BD8B1204643
S315080015A0E16B884717E02068006800F4807068B926
S315080015B02068006820F0100021680860012084F87F
S315080015C0350000BF002084F8340000BFE06B10B17E
S315080015D02046E16B8847606D38B3606D00F0010006
S315080015E0F0B1052084F835002068006820F0010075
S315080015F02168086000BF0098401C0090B84200D9D6
S3150800160005E02068006800F001000028F3D100BF5B
S31508001610012084F8350000BF002084F8340000BF9C
S31508001620E06C10B12046E16C884700BFA4E70000D3
S315080016301C0000202DE9F0410446002500F0B4F90D
S31508001640074614B90120BDE8F081606A00B100BF01
S31508001650022084F8350000BF002084F8340000BF5B
S315080016602068006820F00100216808600AE000F0A0
S315080016709BF9C01B052805D920206065032084F83E
S315080016803500E0E72068006800F001000028EED188
S315080016902068056821480540D4E901010843E16846
S315080016A008432169084361690843A1690843E16958
S315080016B00843216A08430543606A042803D1D4E92C
S315080016C00B0108430543206805602068456925F035
S315080016D00705606A0543606A04280DD1A06A0543B8
S315080016E0E06A48B12046FFF79FF828B140206065B8
S315080016F0012084F83500A6E7206845612046FFF7F3
S3150800170079F8064694F85C103F208840B0600020BF
S315080017106065012084F83500002094E73F8010F0CA
S315080017202DE9F04704460D4616461F464FF00008B9
S31508001730D4F8589000BF94F83400012802D102204A
S31508001740BDE8F087012084F8340000BF94F835001E
S31508001750012825D1022084F83500002060653B4623
S31508001760324629462046FFF7B4F894F85C103F2025
S315080017708840C9F808002068006840F0160021680B
S315080017800860206C28B12068006840F008002168CD
S3150800179008602068006840F001002168086006E0DB
S315080017A000BF002084F8340000BF4FF0020840460E
S315080017B0C6E70000F8B502460B46002500240020BF
S315080017C00021D6E0012606FA01F51E6806EA050498
S315080017D0AC4274D11E7906F00306012E04D01E7998
S315080017E006F00306022E13D190684F000326BE406A
S315080017F0B0434F00DE68BE40304390605068012613
S315080018008E40B0431E79C6F300168E4030435060B2
S315080018101E7906F00306032E09D0D0684F0003266A
S31508001820BE40B0434F009E68BE403043D0601E792C
S3150800183006F00306022E13D1CF0802F1200656F849
S3150800184027004E07F70E0F26BE40B0434F07FF0E80
S315080018501E69BE403043CF0802F1200646F827002D
S3150800186010684F000326BE40B0431E7906F00306F3
S315080018704F00BE40304310605E6806F44036002EC6
S3150800188076D000BF002600963C4E366846F4804661
S315080018903A4F3E603E46366806F48046009600BFDC
S315080018A000BF374E8F0856F827008E07370F0F26CA
S315080018B0BE40B043334EB24202D1002624E057E080
S315080018C0314EB24201D101261EE0304EB24201D15C
S315080018D0022619E02E4EB24201D1032614E02D4EFF
S315080018E0B24201D104260FE02B4EB24201D10526A1
S315080018F00AE02A4EB24201D1062605E0284EB24237
S3150800190001D1072600E008268F073F0FBE40304367
S315080019101B4E8F0846F82700224E3068A0435E68A3
S3150800192006F4801606B120431E4E3060361D306818
S31508001930A0435E6806F4001606B12043194E361D0C
S315080019403060184E361F3068A0435E6806F40036CD
S3150800195006B12043134E361F3060361F3068A04349
S315080019605E6806F4803606B120430E4E083E3060A7
S31508001970491C1029FFF426AFF8BD00004438024080
S3150800198008380140000002400004024000080240F6
S31508001990000C0240001002400014024000180240E9
S315080019A0001C0240083C01400148006870470000DE
S315080019B020000020034800680349097808440149C3
S315080019C008607047200000202800002010B50D4848
S315080019D0006840F400700B4908600846006840F447
S315080019E0806008600846006840F48070086003203C
S315080019F000F0D6F80F2000F007F800F055F80020A0
S31508001A0010BD0000003C0240F0B587B00446002631
S31508001A10002700BF002000901E48006840F0010023
S31508001A201C4908600846006800F00100009000BFE5
S31508001A3000BF01A902A800F089F900F0BFF9460025
S31508001A401548B6FBF0F0471E14481549086040F2E1
S31508001A50E7311348C16047600021016181608161F7
S31508001A6000F064FC054695B90D4800F093FC054660
S31508001A706DB9192000F042F8102C07D20022214631
S31508001A80192000F04FF80748046000E001252846B1
S31508001A9007B0F0BD4438024040420F000000014044
S31508001AA04C0300202400002008B500BF0020009049
S31508001AB01148006840F480400F49086008460068ED
S31508001AC000F48040009000BF00BF00BF00200090D7
S31508001AD0081F006840F08050091F08600846006823
S31508001AE000F08050009000BF00BF00220F21901E1A
S31508001AF000F018F808BD00004438024001460846C0
S31508001B0000280DDB00BF00BF00F01F0301229A402A
S31508001B1043099B0003F1E023C3F8002100BF00BF7F
S31508001B2000BF70472DE9F05F80460D461646002730
S31508001B3002F0BCFD074639462A46334601F007003F
S31508001B40C0F1070ABAF1040F02D94FF0040A01E0FE
S31508001B50C0F1070AD14600F1040ABAF1070F02D20A
S31508001B604FF0000A01E0A0F1030AD4464FF0010A3B
S31508001B700AFA09FAAAF1010A0AEA020A0AFA0CFAA0
S31508001B804FF0010B0BFA0CFBABF1010B0BEA030B45
S31508001B904AEA0B042146404602F090FDBDE8F09F54
S31508001BA000BF00F00702064B19684FF6FF031940FD
S31508001BB0044B0B4343EA0221014B196000BF7047EF
S31508001BC00CED00E00000FA0570B504460D460CB9A8
S31508001BD0012070BD5848006800F00700A84209D2E5
S31508001BE055490D700846006800F00700A84201D064
S31508001BF00120EEE7207800F0020002281DD12078A7
S31508001C0000F00400042805D14C48006840F4E05070
S31508001C104A490860207800F00800082805D1474896
S31508001C20006840F46040454908604448006820F070
S31508001C30F000A168084341490860207800F00100D7
S31508001C40A8B36068012807D13C4808380068C0F383
S31508001C504040B8B90120BCE76068022802D0606835
S31508001C60032807D1354808380068C0F3406048B9EA
S31508001C700120AEE7314808380068C0F3400008B9CB
S31508001C800120A6E72D48006820F003006168084394
S31508001C902A490860FFF788FE064609E0FFF784FE32
S31508001CA0801B41F28831884202D9032091E707E078
S31508001CB02248006800F00C006168B0EB810FEDD196
S31508001CC01D48006800F00700A84209D91A490D7096
S31508001CD00846006800F00700A84201D0012078E70E
S31508001CE0207800F00400042807D11448006820F47E
S31508001CF0E050E168084311490860207800F00800C0
S31508001D00082808D10D48006820F46040216940EA97
S31508001D10C1000A49086000F061F808490968C1F37A
S31508001D200311074A515CC84006490860064800681E
S31508001D30FFF76AFE00204CE7003C024008380240E4
S31508001D40047600081C000020240000200F220260F0
S31508001D500D4A126802F0030242600B4A126802F04A
S31508001D60F0028260084A126802F4E052C260064A2B
S31508001D70126802F46042D2080261044A126802F04C
S31508001D8007020A607047000008380240003C02401B
S31508001D9001480068704700001C00002000B5FFF7E6
S31508001DA0F7FF04490968C1F38221034A515CC84018
S31508001DB000BD0000083802401476000800B5FFF799
S31508001DC0E7FF04490968C1F34231034A515CC84038
S31508001DD000BD000008380240147600082DE9F047D7
S31508001DE0002400250026A1462548006800F00C00BE
S31508001DF020B1042805D008283AD105E0DFF88490F8
S31508001E0039E0DFF8849036E01D48001F006800F0CE
S31508001E103F041B48001F006800F4800078B11A4888
S31508001E201749091F0968C1F38811A0FB017001460B
S31508001E30224600233846FEF797FA05460EE0114873
S31508001E400F49091F0968C1F38811A0FB01700146F3
S31508001E50224600233846FEF787FA05460848001F3B
S31508001E600068C0F30140401C4600B5FBF6F902E0E5
S31508001E70DFF8109000BF00BF4846BDE8F0870000B5
S31508001E80083802400024F40040787D01F8B504467D
S31508001E900CB90120F8BD207800F00100002874D0A4
S31508001EA0F948006800F00C0004280DD0F6480068D0
S31508001EB000F00C00082813D1F348001F006800F44E
S31508001EC08000B0F5800F0BD1EF4808380068C0F3E2
S31508001ED04040002859D06068002856D10120D9E72B
S31508001EE000BF6068B0F5803F08D1E7480838006849
S31508001EF040F48030E449083908601EE06068B0F5AF
S31508001F00A02F0DD1E0480838006840F48020DE494B
S31508001F10083908600846006840F4803008600CE01C
S31508001F20D9480838006820F48030D749083908604D
S31508001F300846006820F48020086000BF606890B1F9
S31508001F40FFF732FD054606E0FFF72EFD401B642825
S31508001F5001D903209EE7CC4808380068C0F3404002
S31508001F600028F1D011E0FFF71FFD054606E0FFF750
S31508001F701BFD401B642801D903208BE7C24808389B
S31508001F800068C0F340400028F1D1207800F0020034
S31508001F9002285FD1BC48006800F00C0058B1BA4866
S31508001FA0006800F00C0008281CD1B748001F00681C
S31508001FB000F48000B0B9B44808380068C0F340009F
S31508001FC020B1E068012801D0012063E7AE4808384F
S31508001FD0006820F0F800216940EAC100AA490839DA
S31508001FE0086037E0E06800B30120A8490860FFF7F9
S31508001FF0DBFC054606E0FFF7D7FC401B022801D9A3
S31508002000032047E7A04808380068C0F340000028C6
S31508002010F1D09D480838006820F0F800216940EAA8
S31508002020C10099490839086014E0002097490860FA
S31508002030FFF7BAFC054606E0FFF7B6FC401B022888
S3150800204001D9032026E7904808380068C0F3400005
S315080020500028F1D1207800F0080008282CD1606902
S31508002060A8B101208A490860FFF79EFC054606E0EC
S31508002070FFF79AFC401B022801D903200AE7824889
S315080020806C300068C0F340000028F1D014E000204E
S315080020907F490860FFF788FC054606E0FFF784FCE1
S315080020A0401B022801D90320F4E677486C30006803
S315080020B0C0F340000028F1D1207800F0040004287D
S315080020C070D1002770483830006800F0805090B909
S315080020D000BF002000906C483830006840F08050FF
S315080020E06949383108600846006800F08050009059
S315080020F000BF00BF01276748006800F48070B0B9C8
S315080021006448006840F4807062490860FFF74CFC38
S31508002110054606E0FFF748FC401B022801D90320C4
S31508002120B8E65C48006800F480700028F2D000BF6A
S31508002130A068012808D154486830006840F00100BA
S315080021405149683108601DE0A06805280DD14E4840
S315080021506830006840F004004B496831086008465A
S31508002160006840F0010008600CE0474868300068E5
S3150800217020F001004449683108600846006820F0EC
S315080021800400086000BFA068A8B1FFF70DFC05466B
S3150800219009E0FFF709FC401B41F28831884202D961
S315080021A0032077E626E0384868300068C0F3400028
S315080021B00028EED013E0FFF7F7FB054608E0FFF727
S315080021C0F3FB401B41F28831884201D9032061E6BE
S315080021D02D4868300068C0F340000028EFD1012F71
S315080021E007D129483830006820F080502649383110
S315080021F0086000BFA069002845D02348006800F0A1
S315080022000C0008285DD0A069022845D100201F4986
S315080022100866FFF7C9FB054606E0FFF7C5FB401B46
S31508002220022801D9032035E6174808380068C0F3A4
S3150800223040600028F1D1D4E907010843616A40EA01
S3150800224081110122A06AC2EB500041EA00412C200C
S31508002250005D41EA00600C49091F086001200B492E
S315080022600866FFF7A1FB054606E0FFF79DFB401B46
S31508002270022801D903200DE6034808380068C0F390
S3150800228040600028F1D049E0083802400000474283
S31508002290800E474200700040002021490866FFF77B
S315080022A083FB054606E0FFF77FFB401B022801D9A2
S315080022B00320EFE51B480068C0F340600028F2D110
S315080022C02CE0A069012800D1E4E51648001D06683F
S315080022D0A069012820D006F48001E06981421BD15B
S315080022E006F03F01206A814216D147F6C070304099
S315080022F0616AB0EB811F0FD106F440310122A06A52
S31508002300C2EB5000B1EB004F06D106F070612C20ED
S31508002310005DB1EB006F01D00120BBE50020B9E5F7
S3150800232000004742003802407047704710B504461F
S315080023300CB9012010BD94F83D0028B9002084F896
S315080023403C00204600F025F8022084F83D00211DB7
S31508002350206801F097FC012084F8460000BF84F845
S315080023603E0001213F2001554020015541200155DD
S3150800237000BF00BF012084F84200432001554420D5
S3150800238001554520015500BF012084F83D00002075
S31508002390D0E77047014691F83D00012801D0012099
S315080023A07047022081F83D000868C06840F00100C7
S315080023B00B68D8601A4B086898421BD00868B0F1B9
S315080023C0804F17D0174B0868984213D0164B0868E9
S315080023D098420FD0154B086898420BD0144B0868E2
S315080023E0984207D0134B0868984203D0124B0868E6
S315080023F098420CD10868806800F00702062A0CD0BB
S315080024000868006840F001000B68186005E0086875
S31508002410006840F001000B6818600020C0E7000063
S31508002420000001400004004000080040000C004085
S31508002430000401400040014000180040704770B594
S3150800244004462068C5682068066906F00200022866
S3150800245019D105F00200022815D1401F216808612C
S31508002460012020772068806900F0030018B1204613
S31508002470FFF7E4FF05E0204600F097F8204600F055
S3150800248095F80020207706F00400042819D105F0F5
S315080024900400042815D1C04321680861022020776A
S315080024A02068806900F4407018B12046FFF7C6FF1F
S315080024B005E0204600F079F8204600F077F800207D
S315080024C0207706F00800082819D105F00800082822
S315080024D015D1C04321680861042020772068C069A7
S315080024E000F0030018B12046FFF7A8FF05E02046D4
S315080024F000F05BF8204600F059F80020207706F037
S315080025001000102819D105F01000102815D1C04365
S3150800251021680861082020772068C06900F44070A7
S3150800252018B12046FFF78AFF05E0204600F03DF87F
S31508002530204600F03BF80020207706F0010048B15D
S3150800254005F0010030B16FF00100216808612046EE
S3150800255000F02EF806F08000802809D105F08000EA
S31508002560802805D1C043216808612046FFF7DCFEB4
S3150800257006F04000402809D105F04000402805D162
S31508002580C04321680861204600F01EF806F02000C6
S31508002590202809D105F02000202805D1C04321684C
S315080025A008612046FFF7C1FE70BD704770470000FE
S315080025B010B5044603492068884201D1FFF7FAF9A5
S315080025C010BD0000000001407047704770B5044612
S315080025D0002520684069C0F3C01594F841002128F9
S315080025E017D1B5B100BF00BF2168143151E8001FEB
S315080025F021F080002168143141E80002002AF3D155
S3150800260000BFA06B10B1A06BFEF789FE204601F053
S3150800261020FD20684069C0F3801594F842002228FE
S3150800262017D1B5B100BF00BF2168143151E8001FAA
S3150800263021F040002168143141E80002002AF3D154
S3150800264000BFE06B10B1E06BFEF769FE204601F0B3
S31508002650BAFC002070BD70472DE9F84F0446206883
S3150800266005682068C668206847694FF00009CA46A9
S3150800267005F00F09B9F1000F0AD105F0200038B1AD
S3150800268006F0200020B1204601F0F6FCBDE8F88FE0
S31508002690B9F1000F7CD007F0010018B906F4907064
S315080026A0002875D005F0010030B106F4807018B125
S315080026B0606C40F00100606405F0040030B107F07A
S315080026C0010018B1606C40F00200606405F0020079
S315080026D030B107F0010018B1606C40F00400606486
S315080026E005F0080048B106F0200010B907F001000F
S315080026F018B1606C40F008006064606C002846D031
S3150800270005F0200028B106F0200010B1204601F09F
S31508002710B3FC20684069C0F3801A606C00F00800BA
S3150800272010B9BAF1000F2DD0204601F04CFC2068F4
S31508002730406900F04000402820D100BF00BF216852
S31508002740143151E8001F21F040002168143141E896
S315080027500002002AF3D100BFE06B50B17F48E16B5D
S315080027600865E06BFEF731FE88B1E06B016D8847BE
S315080027700DE02046FFF76FFF09E009E02046FFF766
S315080027806AFF04E02046FFF766FF002060647DE7E5
S31508002790206B012878D105F01000002874D006F0C7
S315080027A010000028FAD000BF0020009020680068BA
S315080027B0009020684068009000BF00BF206840690C
S315080027C000F04000402870D1E06B006840681FFAAE
S315080027D080F8B8F1000F58D0A08D404555DDA4F813
S315080027E02E80E06BC069B0F5807F43D000BF00BF84
S315080027F021680C3151E8001F21F4807021680C31E2
S3150800280041E80002002AF3D100BF00BF00BF2168DB
S31508002810143151E8001F21F001002168143141E804
S315080028200002002AF3D100BF00BF00BF216814319F
S3150800283051E8001F21F040002168143141E80002E8
S31508002840002AF3D100BF202084F84200002020632C
S3150800285000BF00BF21680C3151E8001F21F01000AD
S3150800286021680C3141E80002002AF3D100BFE06B71
S31508002870FEF755FD02206063A08DE28D801A81B2B5
S315080028802046FFF7A2FE0EE052E0A08D40450AD191
S31508002890E06BC069B0F5807F05D102206063A18D29
S315080028A02046FFF792FEF1E6FFE7A08DE18D401A7C
S315080028B01FFA80F8E08DD0B3B8F1000F37D000BF0B
S315080028C000BF21680C3151E8001F21F4907021687F
S315080028D00C3141E80002002AF3D100BF00BF00BF57
S315080028E02168143151E8001F21F0010021681431D4
S315080028F041E80002002AF3D100BF202084F84200F4
S315080029000020206300BF00BF21680C3151E8001F7A
S3150800291021F0100021680C3141E80002002AF3D1A9
S3150800292000BF0220606341462046FFF74EFEADE633
S3150800293005F0800030B106F0800018B1204601F09D
S315080029409BFDA3E605F0400030B106F0400018B143
S31508002950204601F06EFB99E600BF97E68D3E00081B
S3150800296010B504460CB9012010BDA06900B100E0FD
S3150800297000BF94F8410028B9002084F8400020469A
S3150800298000F02AF8242084F841002068C06820F462
S3150800299000502168C860204601F0ECFB20680069F9
S315080029A020F49040216808612068406920F02A00D8
S315080029B0216848612068C06840F400502168C860F2
S315080029C000206064202084F8410084F8420000203A
S315080029D0606300BFC8E7000010B586B0044614213E
S315080029E001A8FDF7B7FDFE492068884275D100BFEA
S315080029F000200090FB48006840F40020F949086070
S31508002A000846006800F40020009000BF00BF00BF21
S31508002A1000200090F3481038006840F00400F1499F
S31508002A20103908600846006800F00400009000BFEE
S31508002A3000BF4FF4406001900220029000200390EE
S31508002A40032004900820059001A9E748FEF7B2FE86
S31508002A50E648E7490860400548600021E448816087
S31508002A60C1604FF480610161002141618161C161EA
S31508002A7001624162FEF7DEFD08B1FDF741FF00BFC6
S31508002A80DB48E063846300BFD8483030D949086022
S31508002A904FF0006048604021D64881600021C1603F
S31508002AA04FF480610161002141618161C161016268
S31508002AB04162FEF7BFFD08B1FDF722FF00BFCD4812
S31508002AC0A063846300BF002205213420FFF72AF89B
S31508002AD03420FFF713F82AE2FFE7C749206888423F
S31508002AE07ED100BF00200090BE48006840F48010E8
S31508002AF0BC4908600846006800F48010009000BFD2
S31508002B0000BF00BF00200090B6481038006840F0AB
S31508002B100400B449103908600846006800F004004B
S31508002B20009000BF00BF00BF002000900846006864
S31508002B3040F0080008600846006800F008000090A9
S31508002B4000BF00BF88140190022002900020039065
S31508002B50032004900820059001A9A348FEF72AFE41
S31508002B600420019002200290002003900320049084
S31508002B700820059001A9A148FEF71CFE9B4830389D
S31508002B809F490860C005486000219D488160C16072
S31508002B904FF480610161002141618161C161016277
S31508002BA04162FEF747FD08B1FDF7AAFE00BF94484B
S31508002BB0E063846300BF8D487830924908604FF01F
S31508002BC00060486040218F4881600021C1604FF451
S31508002BD080610161002141618161C161016200E09A
S31508002BE013E04162FEF726FD08B1FDF789FE00BF36
S31508002BF08448A063846300BF002205213520FEF7C0
S31508002C0091FF3520FEF77AFF91E17F4920688842D7
S31508002C1076D100BF002000907248006840F400306A
S31508002C20704908600846006800F40030009000BF4C
S31508002C3000BF00BF002000906A481038006840F0C6
S31508002C4008006849103908600846006800F008005E
S31508002C50009000BF00BF6020019002200290002073
S31508002C600390032004900720059001A96348FEF706
S31508002C70A1FD5E484830654908604FF0006048602D
S31508002C80002162488160C1604FF4806101610021C2
S31508002C9041618161C16101624162FEF7CBFC08B105
S31508002CA0FDF72EFE00BF5948E063846300BF4F4816
S31508002CB06030574908604FF000604860402154482A
S31508002CC081600021C1604FF480610161002141618A
S31508002CD08161C16101624162FEF7ACFC08B1FDF792
S31508002CE00FFE00BF4A48A063846300BF0022052187
S31508002CF02620FEF717FF2620FEF700FF17E1FFE75D
S31508002D0044492068884269D100BF002000903548B0
S31508002D10006840F48020334908600846006800F4DB
S31508002D208020009000BF00BF00BF002000902D4803
S31508002D301038006840F002002A4910390860084631
S31508002D40006800F00200009000BF00BF4FF440602A
S31508002D50019002200290002003900320049007208F
S31508002D60059001A92C48FEF725FD204818382B495F
S31508002D7008604FF000604860002128488160C16003
S31508002D804FF480610161002141618161C161016285
S31508002D904162FEF74FFC08B1FDF7B2FD00BF1F48C0
S31508002DA0E063846300BF114818301D4908604FF07E
S31508002DB00060486040211A4881600021C1604FF4D4
S31508002DC080610161002141618161C16101624162E5
S31508002DD0FEF730FC08B1FDF793FD23E030E0000074
S31508002DE0004C004040380240000802404060024063
S31508002DF0280500208805002000500040000C0240ED
S31508002E00E80500204806002000440040A8060020E7
S31508002E100807002000480040000402406807002018
S31508002E20C807002000BF4348A063846300BF002290
S31508002E3005212720FEF776FE2720FEF75FFE76E0BF
S31508002E403D492068884272D100BF002000903B4867
S31508002E50006840F02000394908600846006800F01C
S31508002E602000009000BF00BF00BF0020009033483C
S31508002E701438006840F004003049143908600846E0
S31508002E80006800F00400009000BF00BFC020019059
S31508002E900220029000200390032004900820059049
S31508002EA001A92748FEF786FC2648274908608005B9
S31508002EB04860002124488160C1604FF48061016147
S31508002EC0002141618161C16101624162FEF7B2FB85
S31508002ED008B1FDF715FD00BF1B48E063846300BF1A
S31508002EE018487830194908604FF02060486040213A
S31508002EF0164881600021C1604FF48061016100219C
S31508002F0041618161C16101624162FEF793FB08B1CB
S31508002F10FDF7F6FC00BF0D48A063846300BF0022DE
S31508002F2005214720FEF7FEFD4720FEF7E7FD06B020
S31508002F3010BD0000C80700200014014044380240B4
S31508002F40000802402864024028080020880800205B
S31508002F5070B504460D46164694F8420020280BD153
S31508002F6005B10EB9012070BD0020206332462946FE
S31508002F70204601F015FAF6E70220F4E77047704795
S31508002F80704700BFFEE7000010B50E480E490860FE
S31508002F900320486000210C488160C1604FF4A021DD
S31508002FA001614FF4C00141610021017641768176C5
S31508002FB0C17601774177FDF7E3FF08B1FDF7A0FC7D
S31508002FC010BD000000640040FC02002010B50E4849
S31508002FD00E4908600320486000210C488160C160E2
S31508002FE04FF4A02101614FF4C0014161002101762F
S31508002FF041768176C17601774177FDF7C1FF08B141
S31508003000FDF77EFC10BD0000006800402403002088
S3150800301008B500BF002000903648006840F400104C
S31508003020344908600846006800F40010009000BFA4
S3150800303000BF00BF002000900846006840F48000EA
S3150800304008600846006800F48000009000BF00BFD2
S31508003050002205210B20FEF765FD0B20FEF74EFD2D
S31508003060002205210C20FEF75DFD0C20FEF746FD2B
S31508003070002205210D20FEF755FD0D20FEF73EFD29
S31508003080002205210E20FEF74DFD0E20FEF736FD27
S31508003090002205210F20FEF745FD0F20FEF72EFD25
S315080030A0002205211020FEF73DFD1020FEF726FD23
S315080030B0002205211120FEF735FD1120FEF71EFD21
S315080030C0002205212F20FEF72DFD2F20FEF716FDE5
S315080030D0002205213920FEF725FD3920FEF70EFDD1
S315080030E0002205214520FEF71DFD4520FEF706FDB9
S315080030F008BD00003038024010B503220021012027
S3150800310002F0A8FE04490860044A0021044801F0B8
S31508003110A9FB0449086010BD04000020E0750008FA
S315080031207D3B00080800002008B500BF002000907D
S315080031302448006840F08000224908600846006874
S3150800314000F08000009000BF00BF00BF0020009084
S315080031500846006840F0020008600846006800F06B
S315080031600200009000BF00BF00BF00200090084684
S31508003170006840F0040008600846006800F0040093
S31508003180009000BF00BF00BF0020009008460068FE
S3150800319040F0010008600846006800F00100009051
S315080031A000BF00BF00BF002000900846006840F03E
S315080031B0080008600846006800F00800009000BF94
S315080031C000BF08BD3038024010B50B480B490860EF
S315080031D04FF4E1304860002108488160C160016110
S315080031E00C21416100218161C161FFF7B9FB08B17A
S315080031F0FDF786FB10BD0000004C0040C003002010
S3150800320010B50B480B4908604FF4E13048600021BF
S3150800321008488160C16001610C214161002181611A
S31508003220C161FFF79DFB08B1FDF76AFB10BD000001
S31508003230005000400804002010B50B480B490860F0
S315080032404FF4E1304860002108488160C16001619F
S315080032500C21416100218161C161FFF781FB08B141
S31508003260FDF74EFB10BD000000440040500400204E
S3150800327010B50B480B4908604FF4E130486000214F
S3150800328008488160C16001610C21416100218161AA
S31508003290C161FFF765FB08B1FDF732FB10BD000001
S315080032A0004800409804002010B50B480B490860F8
S315080032B04FF4E1304860002108488160C16001612F
S315080032C00C21416100218161C161FFF749FB08B109
S315080032D0FDF716FB10BD000000140140E0040020B5
S315080032E000BFFEE703F0D8FA00BFC8213C480068D3
S315080032F003F010F9012821D13A483B490A680260CF
S315080033004A68426089688160384801F0FDF83548A6
S31508003310B0F80300404200B2344908803148B0F89A
S31508003320010048802F48B0F8050088802D48B0F87D
S315080033300700C8802B48093088600CE000202B491C
S31508003340088048808880C88026480021A0F809108F
S31508003350093026498860264800780228C5D12348BE
S31508003360B0F9000000EE100AB8EEC00ADFED210A37
S3150800337080EE201A9FED200A21EE000A1F4880EDF4
S31508003380000A1A48B0F9020000EE100AB8EEC00AA0
S31508003390DFED180A80EE201AB1EE410ADFED160AB3
S315080033A020EE200A164880ED000A1048B0F90400FD
S315080033B000EE100AB8EEC00ADFED0E0A80EE201AFB
S315080033C0B0EE080A21EE000ADFED0E0A20EE200A0A
S315080033D0F2EE040A20EE200A0B4880ED000A84E784
S315080033E004000020B2030020940300200C000020F3
S315080033F02C02002000E0FF4400002A43300200208F
S3150800340034020020DB0F49403802002000BFFEE7E7
S3150800341090ED041A80ED051A30EEC01A80ED041AF4
S3150800342090ED061AD0ED041A31EE211A80ED061A2F
S3150800343090ED061AD0ED031AB4EEE11AF1EE10FA81
S3150800344003DD90ED031A80ED061A90ED061AD0ED0D
S31508003450031AF1EE611AB4EEE11AF1EE10FA05D28A
S3150800346090ED031AB1EE411A80ED061A90ED001A96
S31508003470D0ED041A21EE211AD0ED011A90ED062A94
S3150800348001EE821AD0ED041A90ED052A71EEC21AE1
S3150800349090ED022A02EE211A80ED071A90ED071A1E
S315080034A0D0ED081AF1EE611AB4EEE11AF1EE10FA4F
S315080034B005D290ED081AB1EE411A80ED071A90ED83
S315080034C0071AD0ED081AB4EEE11AF1EE10FA03DD88
S315080034D090ED081A80ED071A704700002DED0A8B4B
S315080034E082B003F0D9F9019000BFCE4800780228CF
S315080034F07CD1CD4890ED000ACC48D0ED000A30EEDC
S31508003500200ACB48D0ED000A9FEDCA1A01EE200A20
S3150800351010EE101A084603F0E7FF41EC190B9FED71
S31508003520C60B01F0E2F8B0EE40CAF0EE60CA9FEDB5
S31508003530C20B53EC102B51EC1C0B03F083FC41EC33
S315080035401B0B03F041FC41EC1A0B53EC192B03F04F
S3150800355001FE41EC180B03F043FC00EE100AB848D4
S3150800356080ED000AB04890ED000AB048D0ED000A98
S3150800357030EE600AAE48D0ED000A9FEDAE1A01EEB5
S31508003580600A10EE101A084603F0AEFF41EC190B5C
S315080035909FEDA90B01F0A9F8B0EE40BAF0EE60BABB
S315080035A09FEDA50B53EC102B51EC1B0B03F04AFCBB
S315080035B041EC1A0B53EC192B03F0CCFD41EC180B1C
S315080035C003F00EFC00EE100A9E4880ED000A01206A
S315080035D002F014F9944890ED000A9448D0ED000AD8
S315080035E030EE200A9248D0ED000A00E0E3E09FEDB5
S315080035F0911A01EE600A10EE101A084603F074FFDD
S3150800360041EC190B9FED8C0B01F06FF8B0EE40CA38
S31508003610F0EE60CA9FED880B53EC102B51EC1C0B97
S3150800362003F010FC41EC1B0B03F0CEFB41EC1A0B2C
S3150800363053EC192B03F08EFD41EC180B03F0D0FB6D
S3150800364000EE100A804880ED000A774890ED000ADF
S31508003650B1EE400A7548D0ED000A30EE200A7448EB
S31508003660D0ED000A9FED731A01EE600A10EE101AEB
S31508003670084603F039FF41EC190B9FED6F0B01F07B
S3150800368034F8B0EE40BAF0EE60BA9FED6B0B53EC2F
S31508003690102B51EC1B0B03F0D5FB41EC1A0B53EC2A
S315080036A0192B03F057FD41EC180B03F099FB00EEBC
S315080036B0100A664880ED000A654890ED020AF8EEA1
S315080036C0C00AB1EE0C1A80EE810ADFED620A80EEBE
S315080036D0201AB0EE418A60486049D1ED000AB0EE82
S315080036E0480AFFF795FE5E4890ED020AF8EEC00A12
S315080036F0B1EE0C1A80EE810ADFED560A80EE201A2A
S31508003700B0EE418A57485849D1ED000AB0EE480A4A
S31508003710FFF77EFE554890ED020AB8EEC00AB1EEF4
S315080037200C1AC0EE010A9FED4B0A80EE801AB0EE25
S31508003730418A4F484F49D1ED000AB0EE480AFFF7D3
S3150800374067FE4D4890ED020AF8EEC00AB1EE0C1A73
S3150800375080EE810ADFED3F0A80EE201AB0EE418A3C
S3150800376046484749D1ED000AB0EE480AFFF750FE31
S315080037703948D0ED070AB0EE600A354800F0CCFEAD
S315080037803848D0ED070AB0EE600A354800F0C4FEA6
S31508003790012002F033F83648D0ED070AB0EE600A89
S315080037A0324800F0B9FE3548D0ED070AB0EE600A97
S315080037B0314800F0B1FE1B48007818B11948007866
S315080037C001282AD19FED2F0A244880ED000A9FED93
S315080037D02D0A254880ED000A9FED2A0A254880ED26
S315080037E0000A9FED280A264880ED000A9FED250A63
S315080037F0174800F091FE9FED230A194800F08CFE49
S31508003800012001F0FBFF9FED1F0A184800F084FE17
S315080038109FED1C0A184800F07FFE022101A802F05D
S315080038201BF862E62C020020300200203402002039
S31508003830380200206666663F00000000000000406F
S315080038403C020020400200204402002048020020DA
S31508003850AC0000209A9959409C0100204C02002097
S31508003860E8000020C00100205002002024010020AA
S31508003870E401002054020020600100200802002014
S3150800388058020020000000001CB5044600200090E5
S3150800389001904FF04072A06842EA0020626840EA50
S315080038A002016A46204600F015F91CBD10B50160F4
S315080038B04260FD248460037310BD0000F0B5044621
S315080038C00D46286826683668B04201D00020F0BD4B
S315080038D0C2F307266068B04201D00020F7E7110E50
S315080038E0002976D0022976D1160C84F838605878E3
S315080038F01E7840EA062001EE100AB8EEC11ADFED7E
S315080039006E1A31EE611AF1EE001A21EE211ADFED78
S315080039106B1A21EE211ADFED681A81EE212A84ED51
S31508003920042A207B30B1012809D002280CD00328AC
S3150800393014D10EE09FED620AF3EE010A14E09FED42
S31508003940600ADFED600A0FE0B3EE040ADFED5D0AF8
S315080039500AE0B2EE0E0ADFED5C0A05E09FED5B0AAF
S31508003960DFED5A0A0120B2E700BFD8789E7840EA10
S315080039700620A0F5FE40FF3801EE100AB8EEC11A7F
S3150800398021EE001ADFED4C1A81EE212A84ED052A74
S3150800399058791E7940EA0620A0F5FE40FF3801EE68
S315080039A0100AB8EEC11A21EE201ADFED431A81EE8D
S315080039B0212A84ED062AD8799E7940EA062001EE66
S315080039C0100AB8EEC11ADFED421A21EE211A84ED6B
S315080039D0091A6FE0FFE7152904D1D3E90067C4E99E
S315080039E00C6767E0112965D11E785F7846EA0720DB
S315080039F047F21807C61BB8423BD015DC47F2110739
S31508003A00A0EB0706B84225D009DCA0F5E046A6F1EA
S31508003A10050696B1062E13D00B2E48D115E0032EB7
S31508003A201DD0062E43D11FE0092E40D2DFE806F04E
S31508003A303F353F3A3F3F262B30001E79266437E054
S31508003A4093ED010A84ED110A32E093ED010A84ED43
S31508003A50120A2DE093ED010A84ED130A28E093ED8E
S31508003A60010A84ED140A23E093ED010A84ED150A90
S31508003A701EE093ED010A84ED160A19E093ED010A9A
S31508003A8084ED170A14E093ED010A84ED180A0FE095
S31508003A9093ED010A84ED190A0AE093ED010A84ED13
S31508003AA0040A05E093ED010A84ED050A00E000BF6B
S31508003AB000BF00BF01200AE700FEFF46DB0F4940B2
S31508003AC000003042000070420000F0420000000092
S31508003AD0CDCCCC3D70B588B004460D4616460020C0
S31508003AE00290039504200490002005900820069073
S31508003AF000208DF81C0001AB324602A92068FCF7AD
S31508003B0017FF08B070BD7CB504460D46002000902E
S31508003B10019005208DF8000070208DF801008DF8C1
S31508003B2004504FF09052A06842EA0020626840EACA
S31508003B3002016A462046FFF7CDFF7CBD10B52DED84
S31508003B40028B82B00446B0EE408A002000900190B5
S31508003B5047F20600ADF800008DED018A4FF090524D
S31508003B60A06842EA0020626840EA02016A462046E6
S31508003B70FFF7B0FF02B0BDEC028B10BD00F0F2F803
S31508003B80002001F0D3FE00BF012000F015FEFBE780
S31508003B9010B54FF0E020006902F06EFE012801D052
S31508003BA002F03EF910BD000000B593B0302107A819
S31508003BB0FCF7D0FC142102A8FCF7CCFC00BF0020BF
S31508003BC001902548006840F080502349086008465F
S31508003BD0006800F08050019000BF00BF00BF0020C1
S31508003BE001901E48006840F480401C490860084659
S31508003BF0006800F48040019000BF00BF02200790D3
S31508003C0001200A9010200B9002200D9000210E91A1
S31508003C1008210F91A82110910221119104211291D6
S31508003C2007A8FEF733F908B1FCF76AFE0F200290E1
S31508003C3002200390002004904FF4A05005904FF402
S31508003C4080500690052102A8FDF7BEFF08B1FCF7D3
S31508003C5057FE13B000BD0000403802400070004017
S31508003C600348006840F47000014908607047000086
S31508003C7088ED00E010B50248FEF7E1FB10BD000034
S31508003C804C03002010B502682B4B98420ED0B0F1B9
S31508003C90804F0BD0294B984208D0294B984205D023
S31508003CA0284B984202D0284B984203D122F0700242
S31508003CB04B681A43204B984220D0B0F1804F1DD054
S31508003CC01E4B98421AD01E4B984217D01D4B98424D
S31508003CD014D01D4B984211D01C4B98420ED01C4B49
S31508003CE098420BD01B4B984208D01B4B984205D0E4
S31508003CF01A4B984202D01A4B984203D122F44072CA
S31508003D00CB681A4322F080034C6943EA04028B68A5
S31508003D10C3620B688362084B984202D00A4B9842EA
S31508003D2001D10B690363036843F0040303600123AD
S31508003D304361026010BD000000000140000400401D
S31508003D4000080040000C004000040140004001400B
S31508003D50004401400048014000180040001C004093
S31508003D60002000401CB518480068C06840F01000E4
S31508003D7015490968C8601E2214491348FFF7E8F870
S31508003D8001F016FC1248032100234FF4C872CDE94E
S31508003D90001010A1114802F0DFFC1148022100238F
S31508003DA0CA01CDE900100FA1114802F0D5FC11484F
S31508003DB002210023CA01CDE900100FA1104802F024
S31508003DC0CBFC01F01FFC1CBDC0030020940300209F
S31508003DD05C02002052656D6F74650000DD340008D2
S31508003DE0600200204D6F76655F52656D6F746500E1
S31508003DF0E5320008F8020020666171697500000066
S31508003E009D45000808B519480068006800F01000CC
S31508003E10102827D115480068C06800F0100008B3BC
S31508003E201248FEF7D3FB12480078AA2815D1104885
S31508003E30C07ABB2811D10020009069460D48006859
S31508003E4002F044FA009838B14FF080500A490860E9
S31508003E50BFF34F8FBFF36F8F00BF1E22044903487D
S31508003E60FFF776F80148FEF7F7FB08BDC003002008
S31508003E70940300200400002004ED00E010B5024879
S31508003E80FEF7EAFB10BD00000804002070B50446E2
S31508003E90A56B0020E8852846FEF7DDFB70BD70B5EA
S31508003EA006460025B46B20684069C0F3C01594F82F
S31508003EB04100212805D125B10020E084204600F0E4
S31508003EC0C8F820684069C0F3801594F84200222893
S31508003ED005D125B10020E085204600F074F8606C15
S31508003EE040F0100060642046FEF7B5FB70BD70B563
S31508003EF00546AC6B2868006800F48070002842D13B
S31508003F00E08500BF00BF21680C3151E8001F21F48D
S31508003F10807021680C3141E80002002AF3D100BF05
S31508003F2000BF00BF2168143151E8001F21F00100CD
S31508003F302168143141E80002002AF3D100BF00BF0E
S31508003F4000BF2168143151E8001F21F040002168A4
S31508003F50143141E80002002AF3D100BF202084F87A
S31508003F604200206B01280ED100BF00BF21680C312A
S31508003F7051E8001F21F0100021680C3141E80002C9
S31508003F80002AF3D100BF00206063206B012804D10A
S31508003F90A18D2046FEF719FB02E02046FEF7EEFF4C
S31508003FA070BD70B50546AC6B01206063206B0128B7
S31508003FB005D1A08D41082046FEF707FB02E0204602
S31508003FC0FEF7DDFF70BD00BF00BF02680C3252E885
S31508003FD0002F22F4907102680C3242E80013002B7D
S31508003FE0F3D100BF00BF00BF0268143252E8002FA9
S31508003FF022F001010268143242E80013002BF3D1C3
S3150800400000BF016B01290ED100BF00BF02680C3248
S3150800401052E8002F22F0100102680C3242E8001321
S31508004020002BF3D100BF202180F842100021016344
S31508004030704710B504462068C06820F04000216823
S31508004040C860202084F841002046FEF799FF00202A
S3150800405010BD00BF00BF02680C3252E8002F22F0E4
S31508004060C00102680C3242E80013002BF3D100BFEE
S31508004070202180F841107047F8B50446002500262F
S3150800408094F84200222873D1A068B0F5805F0BD15E
S31508004090206948B9A66A20684068C0F308003080DD
S315080040A0A06A801CA06214E0A56AA068B0F5805FCB
S315080040B003D0A06828B9206918B920684068287014
S315080040C004E02068406800F07F002870A06A401C61
S315080040D0A062E08D401E80B2E085002846D12068A7
S315080040E0C06820F020002168C8602068C06820F4F5
S315080040F080702168C8602068406920F00100216846
S315080041004861202084F8420000206063206B012863
S3150800411026D10020206300BF00BF21680C3151E87A
S31508004120001F21F0100021680C3141E80002002A26
S31508004130F3D100BF2068006800F0100010280AD1EB
S3150800414000BF002000902068006800902068406842
S31508004150009000BF00BFA18D2046FEF736FA02E0A8
S315080041602046FEF70BFF0020F8BD01E00020FBE724
S315080041700220F9E72DE9F84F04462068006920F483
S315080041804050E1680843216808612169A06808432E
S3150800419061690843E169084300902068C06849F2EC
S315080041A00C618843009908432168C8602068406903
S315080041B020F44070A169084321684861764920685F
S315080041C0884203D075492068884203D1FDF7F6FD79
S315080041D0814602E0FDF7E2FD8146E069B0F5004F51
S315080041E06CD102206168A0FB015003461920A9FB87
S315080041F0007001462A463846FCF7B6F86421B0FB3B
S31508004200F1F04FEA001A02206168A0FB01510B4643
S315080042101920A9FB00712A463846FCF7A5F88346FB
S3150800422002206168A0FB015003461920A9FB007112
S315080042302A463846FCF798F86421B0FBF1F000EB03
S31508004240C00101EB0010ABEB8000322101EBC0008E
S315080042506421B0FBF1F000F0F8000AEB400A0220F6
S315080042606168A0FB015003461920A9FB00700146AE
S315080042702A463846FCF778F8834602206168A0FB90
S31508004280015003461920A9FB00712A463846FCF757
S315080042906BF86421B0FBF1F000EBC00101EB0010F4
S315080042A0ABEB8000322101EBC0006421B0FBF1F0DA
S315080042B000F007005044216888606AE004206168BD
S315080042C0A0FB015003461920A9FB007001462A46A7
S315080042D03846FCF749F8824604206168A0FB01507D
S315080042E003461920A9FB007001462A463846FCF702
S315080042F03BF86421B0FBF1F000EBC00101EB0010C4
S31508004300AAEB8000322101EB00106421B0FBF1F02A
S3150800431000F0F00A04206168A0FB0170034619202A
S31508004320A9FB00513A462846FCF71EF86421B0FB63
S31508004330F1F00AEB001A04206168A0FB01510B4654
S315080043401920A9FB00712A463846FCF70DF8834662
S3150800435004206168A0FB015003461920A9FB0070E0
S3150800436001462A463846FBF7FFFF6421B0FBF1F009
S3150800437000EBC00101EB0010ABEB8000322101EB32
S3150800438000106421B0FBF1F000F00F0050442168E2
S315080043908860BDE8F88F0000001001400014014055
S315080043A077B581B0044615460298A062A585002017
S315080043B06064222084F842002C48E16BC8632C48CC
S315080043C0E16B08642B48E16BC8640020E16B086563
S315080043D002AE32682368191D2B46E06BFDF7A0F97B
S315080043E038B110206064202084F84200012004B00F
S315080043F070BD00BF0020009020680068009020680B
S315080044004068009000BF00BF206970B100BF00BFC0
S3150800441021680C3151E8001F41F4807021680C3185
S3150800442041E80002002AF3D100BF00BF00BF21689F
S31508004430143151E8001F41F001002168143141E8A8
S315080044400002002AF3D100BF00BF00BF2168143163
S3150800445051E8001F41F040002168143141E800028C
S31508004460002AF3D100BF0020C1E70000EF3E000894
S31508004470A33F00089F3E0008014691F84100212805
S3150800448028D18868B0F5805F0BD1086948B90A6AEF
S315080044901088C0F308000B685860086A801C086218
S315080044A005E00B6A581C086218780B685860C88CB7
S315080044B0401E80B2C88458B90868C06820F08000D9
S315080044C00B68D8600868C06840F040000B68D86080
S315080044D0002070470220FCE710B50248FEF7BCF83A
S315080044E010BD00005004002010B50248FEF7B4F8CD
S315080044F010BD00009804002010B50248FEF7ACF87D
S3150800450010BD0000E00400208189C1818168098806
S315080045108181704700BFFEE730B52DED068B89B067
S315080045200546B0EE408A18EE100A02F0DDFF41ECAF
S315080045301A0B9FED180B53EC102B02F00BFE41ECF7
S31508004540190B02F0D7FD04460020069004200790B8
S3150800455000200390686840F4807004900420059059
S3150800456000208DF82000200E8DF80800200C8DF80C
S315080045700900200A8DF80A00E0B28DF80B0001AB9D
S3150800458002AA03A92868FCF7D3F909B0BDEC068B83
S3150800459030BD00000000000000408F4008B502F062
S315080045A07BF900900323012239493A48FFF77EF93F
S315080045B003213848FFF7A7FA3648FFF765F90120BF
S315080045C001F01CF90323022231493348FFF76EF93B
S315080045D003213148FFF797FA2F48FFF755F90120CD
S315080045E001F00CF900BF2D4890ED011AF0EE410AD2
S315080045F0284890ED041AB0EE410A2948FEF708FF4C
S31508004600012001F0FBF8264890ED071AF0EE410A62
S31508004610204890ED051AB0EE410A21482430FEF7ED
S31508004620F7FE1F48D0ED100AB0EE600A1948FFF7EA
S3150800463085FA012001F0E2F81A4890ED011AF0EE29
S31508004640410A154890ED041AB0EE410A1648FEF7DD
S31508004650DFFE012001F0D2F8134890ED071AF0EEBC
S31508004660410A0D4890ED051AB0EE410A0E4824306D
S31508004670FEF7CEFE0C48D0ED100AB0EE600A0648EA
S31508004680FFF75CFA0221684601F0E6F8ABE700009E
S3150800469024030020C0510020385200202852002050
S315080046A068020020A0520020B002002002480068DC
S315080046B0C0F30220704700000CED00E010B500289A
S315080046C004DB0A07130E054A135406E00A07140EFC
S315080046D0034A00F00F031B1FD45410BD00E400E08A
S315080046E018ED00E0EFF30580704700B52DED048B5B
S315080046F0B0EE409AF0EE609A83B051EC190B02F0D6
S3150800470027FE41EC180B18EE100A18EE901A8DEDDC
S31508004710008B002818BF0120084320F00040C0F194
S315080047207F6000F1E040C00F14D019EE101A19EEA0
S31508004730900A8DED009B002918BF0121084320F03F
S315080047400040C0F17F6000F1E040C00F04BF0120C7
S31508004750FBF72FFFB0EE480A03B0F0EE680ABDEC8F
S31508004760048B00BDFDF732F9FFF71EFAFEF7DCFCF5
S31508004770FEF74EFCFEF708FCFEF728FCFEF75CFD8C
S31508004780FEF792FDFEF720FDFEF73AFDFEF770FDF7
S315080047900848FBF7B5FF0748FCF78BFD10210548CD
S315080047A0FCF7B1F800F018F8FEF7A6FC00F02AF8B6
S315080047B000BFFEE72403002070B50546FFF792FF09
S315080047C010B16FF0050404E0002415B1284601F085
S315080047D015F8204670BD000010B5FFF783FF10B12D
S315080047E06FF0050409E00648006820B9012004496D
S315080047F00860002401E04FF0FF34204610BD000099
S315080048002C00002070B5FFF76DFF10B16FF005049E
S315080048101FE011480068012819D100BF801F002138
S31508004820002804DB0A07130E0C4A135406E00A078D
S31508004830150E0B4A00F00F031B1FD55400BF00BF0F
S3150800484002200549086001F08BF9002401E04FF0C9
S31508004850FF34204670BD00002C00002000E400E074
S3150800486018ED00E02DE9FF478046894614460020EA
S315080048700390FFF737FF00284ED1B8F1000F4BD051
S31508004880802618258246471E44B3206808B1D4F806
S3150800489000A0A06900B1A5692DB1382D03D82079EB
S315080048A000F0010018B1002004B0BDE8F087606987
S315080048B008B160698608A06840B1E0685C2805D33D
S315080048C0206918B1606908B1012708E0A06830B905
S315080048D0E06820B9206910B9002700E00027012FF9
S315080048E00CD12169A0684B463246CDE900510290A9
S315080048F05146404601F062FF03900DE067B903A8F0
S31508004900B2B24B465146CDE90050404601F024FF6D
S31508004910012801D0002003900398C5E72DE9F0414E
S3150800492005460E461648076816480068001D00F03A
S31508004930DDFD681C38B936B112480168091D1248F0
S3150800494000F02AFE1AE07C190E4800684460BC4252
S3150800495007D20C480168091D0C48006800F002FEE1
S315080049600CE008480168091D0948006800F0FAFDCE
S3150800497008480068844201D206480460BDE8F08110
S31508004980700000205C000020905000206400002089
S31508004990600000208C00002010B5044600F008FED8
S315080049A024480068401C234908602348006840B929
S315080049B0214804600846006801280DD100F006FA6F
S315080049C00AE01E48006838B91B480068C06AE16AF0
S315080049D0884201D81848046019480068401C1849DC
S315080049E008600846006860641649E06A09688842F3
S315080049F002D91449E06A0860E16A01EB8101124AAA
S31508004A0002EB8100211D00F0C7FD00F0FBFD0B48FD
S31508004A10006868B108480068C06AE16A884207D237
S31508004A204FF0805009490860BFF34F8FBFF36F8F6F
S31508004A3010BD00006C0000205C00002078000020FB
S31508004A408800002074000020E04B002004ED00E000
S31508004A5008B500F0ADFD12480068E8B9114800F045
S31508004A6071FD114800F06EFD0E48104908600E48A9
S31508004A700F49086000200F4B0F4A102100900A20AA
S31508004A8001F015FA064908600846006820B10BA12E
S31508004A900348006800F076FE00F0B4FD08BD00008B
S31508004AA0A0000020A4500020B85000209800002044
S31508004AB09C000020CC5000201C510020546D7251DF
S31508004AC00000000010B516E000F072FD0C48C06842
S31508004AD0C468201D00F00AFD0A480068401E0949FE
S31508004AE0086009480068401E0749086000F08AFD0A
S31508004AF0204600F05FF8044800680028E4D110BD9D
S31508004B007C5000206C0000206800002070B5044628
S31508004B100D46206C70B1216CE0680144E160D4E96F
S31508004B200210884201D32168E1602846226CE168B8
S31508004B30FBF791FC70BD2DE9F04104460F4615467A
S31508004B404FF00008A66B206C48B9206800282CD1C5
S31508004B50A06801F049FF80460020A06025E07DB9E5
S31508004B603946226C6068FBF776FC216C606808445D
S31508004B706060D4E90101884217D32068606014E0B8
S31508004B803946226CE068FBF766FC216CE068411A3E
S31508004B90E1602168E068884203D2216CA068411A66
S31508004BA0E160022D01D106B1761E701CA063404655
S31508004BB0BDE8F08110B5044694F8590030B9206B69
S31508004BC000F03EFD204600F03BFD1AE094F859003F
S31508004BD0012803D1204600F033FD12E094F859006D
S31508004BE0022801D1012000E0002050B900BF502062
S31508004BF080F31188BFF34F8FBFF36F8F00BF00BFDD
S31508004C00FEE710BD01464A6A22B10A6B1268C2F174
S31508004C10380000E0002070470146084A126812680A
S31508004C200AB9012200E000220A600A6822B9034A8A
S31508004C301268D268106800E00020704798000020CB
S31508004C4030B54FF47053174800F007042CB1C01D57
S31508004C5020F00700134C041B1B1B0246124C226053
S31508004C600024114D6C60D018083820F007000F4C4E
S31508004C70206000240D4D2D686C600C4D2D682C604D
S31508004C801146441A4C60094C24680C60084D4C685F
S31508004C902C60084D4C682C604FF00044064D2C6083
S31508004CA030BD0000A00F0020300000203800002092
S31508004CB0400000203C0000204C00002000BFFFF709
S31508004CC001FF064800680128F9D94FF080500449C9
S31508004CD00860BFF34F8FBFF36F8FF0E7E04B0020FC
S31508004CE004ED00E02DE9F04106460D4617469846C4
S31508004CF0069C0DB9246000E02760E663256401215F
S31508004D00204601F045F984F84C80BDE8F0812DE98C
S31508004D10F05F82460E4690469B460A9F0C9C4FEAD9
S31508004D208801A522206BFBF70DFCA8F10100216B79
S31508004D3001EB800929F0070909F0070008B90120E5
S31508004D4000E0002050B900BF502080F31188BFF35F
S31508004D504F8FBFF36F8F00BF00BFFEE786B10025F8
S31508004D6007E0715D04F134004155705D00B902E059
S31508004D706D1C102DF5D300BF00214320015502E01C
S31508004D80002084F83400382F00D33727E762E76419
S31508004D9000202065201D00F0E2FB04F1180000F059
S31508004DA0DEFB2461C7F13800A061646200206065FB
S31508004DB084F858005A465146484600F081FB206060
S31508004DC00B9808B10B980460BDE8F09F10B5002455
S31508004DD007E004EB84010F4A02EB810000F0B2FB06
S31508004DE0641C382CF5D30C4800F0ACFB0B4800F0DB
S31508004DF0A9FB0B4800F0A6FB0A4800F0A3FB0A48EB
S31508004E0000F0A0FB044809490860044808490860FE
S31508004E1010BD0000E04B00204050002054500020F8
S31508004E20685000207C500020905000206000002030
S31508004E306400002010B50146164800E000680368C3
S31508004E408B42FBD30246436813448B4204D1436822
S31508004E504C682344436001460A464B681344046879
S31508004E60A34211D10C4C03682468A34208D04B68AE
S31508004E700468646823444B6003681B680B6005E09C
S31508004E80054B1B680B6001E003680B60884200D085
S31508004E90016010BD30000020380000202DE9F041E7
S31508004EA004460D4616461F464FF000086560246105
S31508004EB0B5420CD8F01BA169884202D34FF001080D
S31508004EC011E0211D0948006800F04CFB0BE0BE42CA
S31508004ED004D2BD4202D34FF0010804E0211D044864
S31508004EE0006800F03FFB4046BDE8F0819C000020CA
S31508004EF09800002070B5054600F05AFBA86B08B963
S31508004F00012400E0002400F07DFB204670BD70B54A
S31508004F10054600F04DFBA86BE96B884201D10124D8
S31508004F2000E0002400F06EFB204670BDF8B505468B
S31508004F300F461A480068C068C468201D00F0D6FAF3
S31508004F4094F8280000F00400E8B1A06941192B463E
S31508004F503A462046FFF7A2FFD8B1002003462A4664
S31508004F6001460090204601F0EDFE064656B900BF00
S31508004F70502080F31188BFF34F8FBFF36F8F00BFA8
S31508004F8000BFFEE705E094F8280020F0010084F849
S31508004F9028002046216A8847F8BD000098000020AE
S31508004FA0F0B587B0A0E00398002811DA04AE56B928
S31508004FB000BF502080F31188BFF34F8FBFF36F8F68
S31508004FC000BF00BFFEE7D6E90020B168904700BFE2
S31508004FD003980028E6DB059C606908B9012000E013
S31508004FE0002010B9201D00F081FA02A800F0DEF8B2
S31508004FF0054603980A2875D2DFE800F0090507393F
S31508005000416306083A4200BF00BF00BF00BF94F8DC
S31508005010280040F0010084F828000498A269811845
S3150800502003462A462046FFF739FFF8B12046216A8B
S31508005030884794F8280000F00400B8B100200090D2
S315080050400498A169421800231946204601F07AFE01
S31508005050074657B900BF502080F31188BFF34F8F1A
S31508005060BFF36F8F00BF00BFFEE700BF3BE000BF86
S3150800507094F8280020F0010084F8280033E000BFE7
S3150800508094F8280040F0010084F828000498A061EC
S31508005090A06908B1012000E0002050B900BF5020E7
S315080050A080F31188BFF34F8FBFF36F8F00BF00BF28
S315080050B0FEE7A06941192B462A462046FFF7EEFE71
S315080050C011E094F8280000F0020018B9204600F014
S315080050D0B7FA05E094F8280020F0010084F82800C3
S315080050E001E0FFE700BF00BF002203A904480068EB
S315080050F001F05CF900287FF456AF07B0F0BD000058
S31508005100A0000020F8B505460C4600F085FD684667
S3150800511000F04CF80646009820BB44B9B54206D8BC
S3150800512001F052FD31462846FFF700FF1CE03CB16E
S315080051300E480068006808B9012000E0002004460F
S31508005140A91B22460A48006800F032FB01F03CFD24
S3150800515050B94FF0805007490860BFF34F8FBFF32F
S315080051606F8F01E001F030FDF8BD00009C000020C3
S31508005170A000002004ED00E00A490968096809B999
S31508005180012100E0002121B14FF0FF31064A1160EC
S3150800519006E004490968C968C868034A4168116095
S315080051A070470000600000208C00002070B504469F
S315080051B001F072FB054607480068854204D200F0F4
S315080051C00BF80120206001E00020206001480560FE
S315080051D0284670BDA80000202DE9F84334E025488C
S315080051E00068C068056823480068C068C468201D50
S315080051F000F07CF92046216A884794F8280000F0D8
S31508005200040008B3A0694619AE4207D9666024614E
S31508005210211D1848006800F0A5F915E0002003468E
S315080052202A4601460090204601F08CFD074657B9EC
S3150800523000BF502080F31188BFF34F8FBFF36F8FE5
S3150800524000BF00BFFEE700BF0A480068006808B94B
S31508005250012000E000200028C1D00648D0F80080D0
S3150800526005480068034908600348C0F80080BDE89F
S31508005270F8830000980000209C0000200E48006873
S31508005280401C08B9012000E0002050B900BF50209A
S3150800529080F31188BFF34F8FBFF36F8F00BF00BF36
S315080052A0FEE700BF502080F31188BFF34F8FBFF38E
S315080052B06F8F00BF00BFFEE75000002008B500BF93
S315080052C06846FFF7A9FC044620460099FFF71AFF2F
S315080052D0FFF766FEF4E770B5044600F069F994F93D
S315080052E0455010E0606A08B9012000E0002038B98E
S315080052F004F1240001F01CFC18B100F087FB00E063
S3150800530003E0681E45B2002DECDC00BFFF2084F8E0
S31508005310450000F077F900F04BF994F9445010E095
S31508005320206908B9012000E0002048B904F11000FE
S3150800533001F0FEFB08B100F069FB681E45B200E00B
S3150800534001E0002DECDC00BFFF2084F8440000F0EB
S3150800535059F970BD2DE9F04104464FF0000800F0F8
S315080053605BFC4948006808B9FFF76AFC47480068CB
S315080053702040002870D1D4B1083404F00700B0B139
S3150800538004F00700C0F10800044404F0070008B957
S31508005390012000E0002050B900BF502080F311889A
S315080053A0BFF34F8FBFF36F8F00BF00BFFEE7002C20
S315080053B052D03748006884424ED8364E3046056883
S315080053C001E02E462D686868A04202D228680028A7
S315080053D0F7D12D48006885423ED0306800F10808AC
S315080053E0286830606868001B102819D92F1907F03B
S315080053F0070008B9012000E0002050B900BF50207E
S3150800540080F31188BFF34F8FBFF36F8F00BF00BFC4
S31508005410FEE76868001B78606C603846FFF70AFD8F
S315080054201B4968680968081A194908600846006827
S3150800543019490968884203D2154800681649086060
S31508005440124968680968084368600020286013489C
S315080054500068401C1149086001F0B6FB08F0070017
S3150800546008B9012000E0002050B900BF502080F3A1
S315080054701188BFF34F8FBFF36F8F00BF00BFFEE7E2
S315080054804046BDE8F0810000380000204C000020AE
S315080054903C0000203000002040000020440000208E
S315080054A00648006830B10549096801F15000096DE0
S315080054B0491C016001480068704700005C00002034
S315080054C0001F4FF080730360001F21F00103036083
S315080054D0001F054B036014380260001F6FF00203BB
S315080054E003602038704700007D52000801460A69AB
S315080054F0D1E901309860D1E90103586050688842C3
S3150800550001D188685060002008611068401E10604C
